:020000040000FA
:0400000010EF00F00D
:020004000000FA
:040008007FEF00F096
:04001800A1EF00F064
:10002000800E9B6E700ED36E100ED26E896A000E1B
:10003000926E896A000E986E8A6A000E936E8B6AC1
:10004000010E946E6096628626EF00F042EC00F09E
:1000500035EC00F03AEC00F030EC00F040EF00F04E
:10006000E00E7C6EF28E01681200E00EF26E850EDC
:10007000D56E1200270ECD6EF1849D809D801200FA
:1000800040EF00F010EE10F00F0E106E150E116E16
:100090001A0E126E1D0E136E1E0E146E1D0E156EB0
:1000A0001A0E166E150E176E0F0E186E090E196EBB
:1000B000040E1A6E010E1B6E000E1C6E010E1D6EDC
:1000C000040E1E6E090E1F6E00EE20F046C120F0D9
:1000D000010E202646C121F0020E212646C122F043
:1000E000030E222646C123F0010E242646C124F029
:1000F00024C025F046C126F0020E26261200F2B4D6
:1001000096EC00F09EB08DEC00F0100010EE10F0B8
:100110008AEF00F0E6507B6E1200E150200A016E7B
:1001200001668AEF00F086EF00F012008B72EECFCE
:10013000F6FF0900F5CFCFFF0900F5CFCEFFF2940F
:100140001200000010000000FFEEFFF0FFF8FFFAC1
:04015000FFFFFFDED0
:00000001FF
