:020000040000FA
:0410000010EF08F0F5
:021004000000EA
:041008007CEF08F081
:04101800ABEF08F042
:10102000800E9B6E700ED36E100ED26E896A000E0B
:10103000926E896A000E986E8A6A000E936E8B6AB1
:10104000010E946E6096628626EF08F04BEC08F075
:1010500037EC08F03CEC08F032EC08F042EC08F019
:1010600049EF08F0E00E7C6EF28E01681200E00E8F
:10107000F26E850ED56E1200270ECD6EF1849D8026
:101080009D801200000EF86E110EF76E5A0EF66E6D
:10109000120049EF08F010EE10F00F0E106E150E52
:1010A000116E1A0E126E1D0E136E1E0E146E1D0E94
:1010B000156E1A0E166E150E176E0F0E186E090E9F
:1010C000196E040E1A6E010E1B6E000E1C6E010EC0
:1010D0001D6E040E1E6E090E1F6E00EE20F0010E36
:1010E000206E020E216E030E226E010E246E24C0AD
:1010F00025F0020E266E1200F2B493EC08F09EB0BA
:101100008AEC08F0100010EE10F087EF08F0E650BF
:101110007B6E1200E150200A016E016687EF08F035
:1011200083EF08F012008B7242EC08F0EE50E86694
:101130009CEF08F0A3EF08F009000900E82C9CEFF1
:1011400008F0A3EF08F00900F5CFCFFF0900F5CFB5
:10115000CEFFF2941200000010000000FFEEFFF03E
:08116000FFF8FFFAFFFFFFDEBC
:00000001FF
