:020000040000FA
:0410000010EF08F0F5
:021004000000EA
:0410080065EF08F098
:041018007FEF08F06E
:10102000800E9B6E700ED36E100ED26E896A000E0B
:10103000926E896A000E986E8A6A000E936E8B6AB1
:10104000010E946E6096628626EF08F042EC08F07E
:1010500035EC08F03AEC08F030EC08F040EF08F01E
:10106000E00E7C6EF28E01681200E00EF26E850ECC
:10107000D56E1200270ECD6EF1849D809D801200EA
:1010800040EF08F010EE10F00F0E106E150E116EFE
:101090001A0E126E1D0E136E1E0E146E1D0E156EA0
:1010A0001A0E166E150E176E0F0E186E090E196EAB
:1010B000040E1A6E010E1B6E000E1C6E010E1D6ECC
:1010C000040E1E6E090E1F6E1200F2B47CEC08F0C6
:1010D0009EB073EC08F0100010EE10F070EF08F006
:1010E000E6507B6E1200E150200A016E016670EF3F
:1010F00008F06CEF08F012008B72F29412000000FE
:0611000010000000FFEEEC
:00000001FF
