:020000040000FA
:0410000010EF08F0F5
:021004000000EA
:0410080081EF08F07C
:04101800BBEF08F032
:10102000800E9B6E700ED36E100ED26E896A000E0B
:10103000926E896A000E986E8A6A000E936E8B6AB1
:10104000010E946E04906096628627EF08F050ECD3
:1010500008F038EC08F03DEC08F033EC08F043EC15
:1010600008F04AEF08F0E00E7C6EF28E0168120084
:10107000E00EF26E850ED56E1200270ECD6EF18455
:101080009D809D801200000EF86E110EF76E7A0E94
:10109000F66E120082A0048004C08AFF4AEF08F0B6
:1010A00010EE10F00F0E106E150E116E1A0E126E5D
:1010B0001D0E136E1E0E146E1D0E156E1A0E166E7C
:1010C000150E176E0F0E186E090E196E040E1A6E9D
:1010D000010E1B6E000E1C6E010E1D6E040E1E6EA8
:1010E000090E1F6E00EE20F0010E206E020E216E22
:1010F000030E226E010E246E24C025F0020E266E11
:101100001200F2B4A0EC08F09EB090EC08F01000D1
:1011100010EE10F08CEF08F0E6507B6E9E901200FF
:101120009E9004A0120002C0CFFF03C0CEFFE1508A
:10113000200A016E01668CEF08F088EF08F01200BB
:10114000F29404A012008B7243EC08F0EE50E866B3
:10115000ACEF08F0B3EF08F009000900E82CACEFA1
:1011600008F0B3EF08F00900F5CF02F00900F5CF61
:1011700003F0F2941200000010000000FFEEFFF0F8
:08118000FFF8FFFAFFFFFFDE9C
:00000001FF
