:020000040000FA
:0400000010EF00F00D
:020004000000FA
:040008007CEF00F099
:04001800ABEF00F05A
:10002000800E9B6E700ED36E100ED26E896A000E1B
:10003000926E896A000E986E8A6A000E936E8B6AC1
:10004000010E946E6096628626EF00F04BEC00F095
:1000500037EC00F03CEC00F032EC00F042EC00F049
:1000600049EF00F0E00E7C6EF28E01681200E00EA7
:10007000F26E850ED56E1200270ECD6EF1849D8036
:100080009D801200000EF86E010EF76E5A0EF66E8D
:10009000120049EF00F010EE10F00F0E106E150E6A
:1000A000116E1A0E126E1D0E136E1E0E146E1D0EA4
:1000B000156E1A0E166E150E176E0F0E186E090EAF
:1000C000196E040E1A6E010E1B6E000E1C6E010ED0
:1000D0001D6E040E1E6E090E1F6E00EE20F0010E46
:1000E000206E020E216E030E226E010E246E24C0BD
:1000F00025F0020E266E1200F2B493EC00F09EB0D2
:100100008AEC00F0100010EE10F087EF00F0E650DF
:100110007B6E1200E150200A016E016687EF00F04D
:1001200083EF00F012008B7242EC00F0EE50E866B4
:100130009CEF00F0A3EF00F009000900E82C9CEF11
:1001400000F0A3EF00F00900F5CFCFFF0900F5CFD5
:10015000CEFFF2941200000010000000FFEEFFF04E
:08016000FFF8FFFAFFFFFFDECC
:00000001FF
