:020000040000FA
:0410000010EF08F0F5
:021004000000EA
:0410080058EF08F0A5
:0410180060EF08F08D
:10102000800E9B6E700ED36E100ED26E896AFF0E0C
:10103000926E000E5B6F000E986E8A6A000E936EC1
:101040008B6A010E946E6096628627EF08F02DEC95
:1010500008F033EF08F0F28E1200A00EF26E850E4B
:10106000D56EF184120033EF08F010EE10F00F0E81
:10107000106E150E116E1A0E126E1D0E136E1E0ED0
:10108000146E1D0E156E1A0E166E150E176E0F0EBF
:10109000186E090E196E040E1A6E010E1B6E000EEC
:1010A0001C6E010E1D6E040E1E6E090E1F6E1200C8
:1010B000F2B45DEC08F0100012008B72F294120092
:0810C000000010000000FFEE2B
:00000001FF
