:020000040000FA
:0410000010EF08F0F5
:021004000000EA
:0410080064EF08F099
:0410180071EF08F07C
:10102000800E9B6E700ED36E100ED26E896A000E0B
:10103000926E896A000E986E8A6A000E936E8B6AB1
:10104000010E946E6096628626EF08F041EC08F07F
:1010500034EC08F039EC08F030EC08F03FEF08F021
:10106000E00E7C6EF28E1200E00EF26E850ED56EF2
:101070001200270ECD6EF1849D809D8012003FEFFF
:1010800008F010EE10F00F0E106E150E116E1A0E05
:10109000126E1D0E136E1E0E146E1D0E156E1A0EA0
:1010A000166E150E176E0F0E186E090E196E040EC1
:1010B0001A6E010E1B6E000E1C6E010E1D6E040ECC
:1010C0001E6E090E1F6E1200F2B46EEC08F09EB098
:1010D0006BEC08F01000E4527B6E12008B72F294FD
:0A10E0001200000010000000FFEEF7
:00000001FF
