:020000040000FA
:0410000010EF08F0F5
:021004000000EA
:041008007FEF08F07E
:04101800A3EF08F04A
:10102000800E9B6E700ED36E100ED26E896A000E0B
:10103000926E896A000E986E8A6A000E936E8B6AB1
:10104000010E946E6096628626EF08F042EC08F07E
:1010500035EC08F03AEC08F030EC08F040EF08F01E
:10106000E00E7C6EF28E01681200E00EF26E850ECC
:10107000D56E1200270ECD6EF1849D809D801200EA
:1010800040EF08F010EE10F00F0E106E150E116EFE
:101090001A0E126E1D0E136E1E0E146E1D0E156EA0
:1010A0001A0E166E150E176E0F0E186E090E196EAB
:1010B000040E1A6E010E1B6E000E1C6E010E1D6ECC
:1010C000040E1E6E090E1F6E00EE20F04AC120F0C5
:1010D000010E20264AC121F0020E21264AC122F02B
:1010E000030E22264AC123F0010E24264AC124F011
:1010F00024C025F04AC126F0020E26261200F2B4C2
:1011000096EC08F09EB08DEC08F0100010EE10F098
:101110008AEF08F0E6507B6E1200E150200A016E63
:1011200001668AEF08F086EF08F012008B720F0E4E
:10113000F76EEE0EF66E0800F5CFCFFF0800F5CF84
:10114000CEFFF2941200000010000000FFEEFFF04E
:08115000FFF8FFFAFFFFFFDECC
:00000001FF
