:020000040000FA
:0410000010EF08F0F5
:021004000000EA
:0410080096EF08F067
:04101800D0EF08F01D
:10102000800E9B6E700ED36E100ED26E896A000E0B
:10103000926E000E5B6F896A000E986E8A6A000ECF
:10104000936E8B6A010E946E04906096628629EF0F
:1010500008F052EC08F03AEC08F03FEC08F035EC00
:1010600008F045EC08F04CEF08F0E00E7C6EF28ED4
:1010700001681200E00EF26E850ED56E1200470E6A
:10108000CD6EF1849D809D801200000EF86E110ED1
:10109000F76EA40EF66E120082A0048004C08AFFD0
:1010A0004CEF08F010EE10F00F0E106E150E116ED2
:1010B0001A0E126E1D0E136E1E0E146E1D0E156E80
:1010C0001A0E166E150E176E0F0E186E090E196E8B
:1010D000040E1A6E010E1B6E000E1C6E010E1D6EAC
:1010E000040E1E6E090E1F6E00EE20F0010E206E23
:1010F000020E216E030E226E20C023F0236E24C048
:1011000025F022C026F020C027F022C028F0040ECF
:10111000296E050E306E000E316E22C032F029C0ED
:1011200033F030C034F031C035F01200F2B4B5EC19
:1011300008F09EB0A5EC08F0100010EE10F0A1EF42
:1011400008F0E6507B6E9E9012009E9004A0120064
:1011500002C0CFFF03C0CEFFE150200A016E01663E
:10116000A1EF08F09DEF08F01200F29404A0120025
:101170008B7245EC08F0EE50E866C1EF08F0C8EF5E
:1011800008F009000900E82CC1EF08F0C8EF08F0EA
:101190000900F5CF02F00900F5CF03F0F294120038
:1011A000000010000000FF00FFA0FF00FFA0FF00F4
:0211B000FFA09E
:00000001FF
