:020000040000FA
:0400000010EF00F00D
:020004000000FA
:04000800BDEF00F058
:04001800FDEF00F008
:10002000800E9B6E700ED36E100ED26E896A000E1B
:10003000926E000E5B6F896A000E986E8A6A000EDF
:10004000936E8B6A010E946E0490056A60966286C8
:100050002AEF00F053EC00F03BEC00F040EC00F035
:1000600036EC00F046EC00F04DEF00F0E00E7C6E58
:10007000F28E01681200E00EF26E850ED56E12004F
:10008000470ECD6EF1849D809D801200000EF86EAB
:10009000010EF76EFE0EF66E120082A0048004C000
:1000A0008AFF4DEF00F010EE10F00F0E106E150EDF
:1000B000116E1A0E126E1D0E136E1E0E146E1D0E94
:1000C000156E1A0E166E150E176E0F0E186E090E9F
:1000D000196E040E1A6E010E1B6E000E1C6E010EC0
:1000E0001D6E040E1E6E090E1F6E00EE20F0010E36
:1000F000206E020E216E030E226E20C023F0236EAE
:1001000024C025F022C026F020C027F022C028F00D
:10011000040E296E050E306E000E316E22C032F0D4
:1001200029C033F030C034F031C035F00B0E366EDC
:100130000C6E376E36C038F00A0E396E030E406E04
:1001400027C041F036C042F037C043F042C044F00F
:1001500039C045F040C046F041C047F047C048F0C4
:1001600034C049F035C050F031C051F050C053F0A8
:1001700034C054F050C055F01200F2B4DEEC00F080
:100180009EB0CCEC00F0100010EE10F0C8EF00F0C4
:10019000E6507B6E9E90120005C0D7FF9E9004A093
:1001A000120002C0CFFF03C0CEFFE150200A016E53
:1001B0000166C8EF00F0C4EF00F01200F29404A052
:1001C00012008B7246EC00F0EE50E866EAEF00F0A9
:1001D000F2EF00F0090009000900E82CEAEF00F056
:1001E000F2EF00F00900F5CF05F00900F5CF02F0BD
:1001F0000900F5CF03F0F294120000001000000097
:10020000000000FF000000FFA00000FF000000FF52
:10021000A00000FF000000FFA00080FFEE0080FFB4
:10022000F0008080F80080A0FA0080D0FF0080FFFE
:02023000DE00EE
:00000001FF
